:100000000C9434000C943E000C943E000C943E0082
:100010000C943E000C943E000C943E000C943E0068
:100020000C943E000C943E000C943E000C943E0058
:100030000C943E000C943E000C943E000C943E0048
:100040000C943E000C943E000C943E000C943E0038
:100050000C943E000C943E000C943E000C943E0028
:100060000C943E000C943E0011241FBECFEFD8E04C
:10007000DEBFCDBF0E9440000C9465000C940000D0
:1000800084B1876084B9289A2FEF8DE399E42150D9
:1000900080409040E1F700C000002898299A2FEF97
:1000A0008DE399E4215080409040E1F700C00000CA
:1000B00029982A9A2FEF8DE399E4215080409040AF
:0E00C000E1F700C000002A98DECFF894FFCFD1
:00000001FF
